S00E0000426C696E6B792E73726563AD
S11300000C9434000C943E000C943E000C943E007E
S11300100C943E000C943E000C943E000C943E0064
S11300200C943E000C943E000C943E000C943E0054
S11300300C943E000C943E000C943E000C943E0044
S11300400C943E000C943E000C943E000C943E0034
S11300500C943E000C943E000C943E000C943E0024
S11300600C943E000C943E0011241FBECFEFD8E048
S1130070DEBFCDBF0E9440000C9454000C940000DD
S1130080259A2D9A27982F9A90E21F9B03C085B139
S1130090892785B92FE332E48FE021503040804036
S10F00A0E1F700C00000F1CFF894FFCF9E
S9030000FC
